{
	"data": {
		"bytecode": {
			"linkReferences": {},
			"object": "608060405234801561001057600080fd5b506101e7806100206000396000f3fe608060405234801561001057600080fd5b506004361061002b5760003560e01c80638dfe2b9f14610030575b600080fd5b6100b3600480360360a081101561004657600080fd5b81019080803560ff169060200190929190803573ffffffffffffffffffffffffffffffffffffffff16906020019092919080359060200190929190803573ffffffffffffffffffffffffffffffffffffffff169060200190929190803590602001909291905050506100d7565b604051808260058111156100c357fe5b60ff16815260200191505060405180910390f35b60008060019050600160058111156100eb57fe5b8760058111156100f757fe5b141561010657600590506101a5565b6002600581111561011357fe5b87600581111561011f57fe5b141561012e57600590506101a4565b6003600581111561013b57fe5b87600581111561014757fe5b141561015657600190506101a3565b6004600581111561016357fe5b87600581111561016f57fe5b141561017e57600190506101a2565b60058081111561018a57fe5b87600581111561019657fe5b14156101a157600190505b5b5b5b5b809150509594505050505056fea265627a7a72315820c721f93fb0980f376c81c6d5c35891e4cb1e32a71e3db8f87dd8ef2459226e0764736f6c63430005110032",
			"opcodes": "PUSH1 0x80 PUSH1 0x40 MSTORE CALLVALUE DUP1 ISZERO PUSH2 0x10 JUMPI PUSH1 0x0 DUP1 REVERT JUMPDEST POP PUSH2 0x1E7 DUP1 PUSH2 0x20 PUSH1 0x0 CODECOPY PUSH1 0x0 RETURN INVALID PUSH1 0x80 PUSH1 0x40 MSTORE CALLVALUE DUP1 ISZERO PUSH2 0x10 JUMPI PUSH1 0x0 DUP1 REVERT JUMPDEST POP PUSH1 0x4 CALLDATASIZE LT PUSH2 0x2B JUMPI PUSH1 0x0 CALLDATALOAD PUSH1 0xE0 SHR DUP1 PUSH4 0x8DFE2B9F EQ PUSH2 0x30 JUMPI JUMPDEST PUSH1 0x0 DUP1 REVERT JUMPDEST PUSH2 0xB3 PUSH1 0x4 DUP1 CALLDATASIZE SUB PUSH1 0xA0 DUP2 LT ISZERO PUSH2 0x46 JUMPI PUSH1 0x0 DUP1 REVERT JUMPDEST DUP2 ADD SWAP1 DUP1 DUP1 CALLDATALOAD PUSH1 0xFF AND SWAP1 PUSH1 0x20 ADD SWAP1 SWAP3 SWAP2 SWAP1 DUP1 CALLDATALOAD PUSH20 0xFFFFFFFFFFFFFFFFFFFFFFFFFFFFFFFFFFFFFFFF AND SWAP1 PUSH1 0x20 ADD SWAP1 SWAP3 SWAP2 SWAP1 DUP1 CALLDATALOAD SWAP1 PUSH1 0x20 ADD SWAP1 SWAP3 SWAP2 SWAP1 DUP1 CALLDATALOAD PUSH20 0xFFFFFFFFFFFFFFFFFFFFFFFFFFFFFFFFFFFFFFFF AND SWAP1 PUSH1 0x20 ADD SWAP1 SWAP3 SWAP2 SWAP1 DUP1 CALLDATALOAD SWAP1 PUSH1 0x20 ADD SWAP1 SWAP3 SWAP2 SWAP1 POP POP POP PUSH2 0xD7 JUMP JUMPDEST PUSH1 0x40 MLOAD DUP1 DUP3 PUSH1 0x5 DUP2 GT ISZERO PUSH2 0xC3 JUMPI INVALID JUMPDEST PUSH1 0xFF AND DUP2 MSTORE PUSH1 0x20 ADD SWAP2 POP POP PUSH1 0x40 MLOAD DUP1 SWAP2 SUB SWAP1 RETURN JUMPDEST PUSH1 0x0 DUP1 PUSH1 0x1 SWAP1 POP PUSH1 0x1 PUSH1 0x5 DUP2 GT ISZERO PUSH2 0xEB JUMPI INVALID JUMPDEST DUP8 PUSH1 0x5 DUP2 GT ISZERO PUSH2 0xF7 JUMPI INVALID JUMPDEST EQ ISZERO PUSH2 0x106 JUMPI PUSH1 0x5 SWAP1 POP PUSH2 0x1A5 JUMP JUMPDEST PUSH1 0x2 PUSH1 0x5 DUP2 GT ISZERO PUSH2 0x113 JUMPI INVALID JUMPDEST DUP8 PUSH1 0x5 DUP2 GT ISZERO PUSH2 0x11F JUMPI INVALID JUMPDEST EQ ISZERO PUSH2 0x12E JUMPI PUSH1 0x5 SWAP1 POP PUSH2 0x1A4 JUMP JUMPDEST PUSH1 0x3 PUSH1 0x5 DUP2 GT ISZERO PUSH2 0x13B JUMPI INVALID JUMPDEST DUP8 PUSH1 0x5 DUP2 GT ISZERO PUSH2 0x147 JUMPI INVALID JUMPDEST EQ ISZERO PUSH2 0x156 JUMPI PUSH1 0x1 SWAP1 POP PUSH2 0x1A3 JUMP JUMPDEST PUSH1 0x4 PUSH1 0x5 DUP2 GT ISZERO PUSH2 0x163 JUMPI INVALID JUMPDEST DUP8 PUSH1 0x5 DUP2 GT ISZERO PUSH2 0x16F JUMPI INVALID JUMPDEST EQ ISZERO PUSH2 0x17E JUMPI PUSH1 0x1 SWAP1 POP PUSH2 0x1A2 JUMP JUMPDEST PUSH1 0x5 DUP1 DUP2 GT ISZERO PUSH2 0x18A JUMPI INVALID JUMPDEST DUP8 PUSH1 0x5 DUP2 GT ISZERO PUSH2 0x196 JUMPI INVALID JUMPDEST EQ ISZERO PUSH2 0x1A1 JUMPI PUSH1 0x1 SWAP1 POP JUMPDEST JUMPDEST JUMPDEST JUMPDEST JUMPDEST DUP1 SWAP2 POP POP SWAP6 SWAP5 POP POP POP POP POP JUMP INVALID LOG2 PUSH6 0x627A7A723158 KECCAK256 0xC7 0x21 0xF9 EXTCODEHASH 0xB0 SWAP9 0xF CALLDATACOPY PUSH13 0x81C6D5C35891E4CB1E32A71E3D 0xB8 0xF8 PUSH30 0xD8EF2459226E0764736F6C63430005110032000000000000000000000000 "
		},
		"gasEstimates": {
			"creation": {
				"codeDepositCost": "97400",
				"executionCost": "147",
				"totalCost": "97547"
			},
			"external": {
				"chooseNextAction(uint8,address,int256,address,int256)": "859"
			}
		},
		"methodIdentifiers": {
			"chooseNextAction(uint8,address,int256,address,int256)": "8dfe2b9f"
		}
	},
	"abi": [
		{
			"constant": true,
			"inputs": [
				{
					"internalType": "enum ActionStrategy.Action",
					"name": "previousAdvAction",
					"type": "uint8"
				},
				{
					"internalType": "address",
					"name": "avatar",
					"type": "address"
				},
				{
					"internalType": "int256",
					"name": "damages",
					"type": "int256"
				},
				{
					"internalType": "address",
					"name": "avatarAdv",
					"type": "address"
				},
				{
					"internalType": "int256",
					"name": "damagesAdv",
					"type": "int256"
				}
			],
			"name": "chooseNextAction",
			"outputs": [
				{
					"internalType": "enum ActionStrategy.Action",
					"name": "action",
					"type": "uint8"
				}
			],
			"payable": false,
			"stateMutability": "view",
			"type": "function"
		}
	]
}