{
	"data": {
		"bytecode": {
			"linkReferences": {},
			"object": "608060405234801561001057600080fd5b50610124806100206000396000f3fe6080604052348015600f57600080fd5b506004361060285760003560e01c80638dfe2b9f14602d575b600080fd5b60ad600480360360a0811015604157600080fd5b81019080803560ff169060200190929190803573ffffffffffffffffffffffffffffffffffffffff16906020019092919080359060200190929190803573ffffffffffffffffffffffffffffffffffffffff1690602001909291908035906020019092919050505060d0565b6040518082600581111560bc57fe5b60ff16815260200191505060405180910390f35b60006015821360e1576001905060e6565b600090505b9594505050505056fea265627a7a723158209f5b06cc3a46591b6407dd84c8092ddff111cb91bc6b07e1ec19b425ee2d6bb164736f6c63430005110032",
			"opcodes": "PUSH1 0x80 PUSH1 0x40 MSTORE CALLVALUE DUP1 ISZERO PUSH2 0x10 JUMPI PUSH1 0x0 DUP1 REVERT JUMPDEST POP PUSH2 0x124 DUP1 PUSH2 0x20 PUSH1 0x0 CODECOPY PUSH1 0x0 RETURN INVALID PUSH1 0x80 PUSH1 0x40 MSTORE CALLVALUE DUP1 ISZERO PUSH1 0xF JUMPI PUSH1 0x0 DUP1 REVERT JUMPDEST POP PUSH1 0x4 CALLDATASIZE LT PUSH1 0x28 JUMPI PUSH1 0x0 CALLDATALOAD PUSH1 0xE0 SHR DUP1 PUSH4 0x8DFE2B9F EQ PUSH1 0x2D JUMPI JUMPDEST PUSH1 0x0 DUP1 REVERT JUMPDEST PUSH1 0xAD PUSH1 0x4 DUP1 CALLDATASIZE SUB PUSH1 0xA0 DUP2 LT ISZERO PUSH1 0x41 JUMPI PUSH1 0x0 DUP1 REVERT JUMPDEST DUP2 ADD SWAP1 DUP1 DUP1 CALLDATALOAD PUSH1 0xFF AND SWAP1 PUSH1 0x20 ADD SWAP1 SWAP3 SWAP2 SWAP1 DUP1 CALLDATALOAD PUSH20 0xFFFFFFFFFFFFFFFFFFFFFFFFFFFFFFFFFFFFFFFF AND SWAP1 PUSH1 0x20 ADD SWAP1 SWAP3 SWAP2 SWAP1 DUP1 CALLDATALOAD SWAP1 PUSH1 0x20 ADD SWAP1 SWAP3 SWAP2 SWAP1 DUP1 CALLDATALOAD PUSH20 0xFFFFFFFFFFFFFFFFFFFFFFFFFFFFFFFFFFFFFFFF AND SWAP1 PUSH1 0x20 ADD SWAP1 SWAP3 SWAP2 SWAP1 DUP1 CALLDATALOAD SWAP1 PUSH1 0x20 ADD SWAP1 SWAP3 SWAP2 SWAP1 POP POP POP PUSH1 0xD0 JUMP JUMPDEST PUSH1 0x40 MLOAD DUP1 DUP3 PUSH1 0x5 DUP2 GT ISZERO PUSH1 0xBC JUMPI INVALID JUMPDEST PUSH1 0xFF AND DUP2 MSTORE PUSH1 0x20 ADD SWAP2 POP POP PUSH1 0x40 MLOAD DUP1 SWAP2 SUB SWAP1 RETURN JUMPDEST PUSH1 0x0 PUSH1 0x15 DUP3 SGT PUSH1 0xE1 JUMPI PUSH1 0x1 SWAP1 POP PUSH1 0xE6 JUMP JUMPDEST PUSH1 0x0 SWAP1 POP JUMPDEST SWAP6 SWAP5 POP POP POP POP POP JUMP INVALID LOG2 PUSH6 0x627A7A723158 KECCAK256 SWAP16 JUMPDEST MOD 0xCC GASPRICE CHAINID MSIZE SHL PUSH5 0x7DD84C809 0x2D 0xDF CALL GT 0xCB SWAP2 0xBC PUSH12 0x7E1EC19B425EE2D6BB16473 PUSH16 0x6C634300051100320000000000000000 "
		},
		"gasEstimates": {
			"creation": {
				"codeDepositCost": "58400",
				"executionCost": "111",
				"totalCost": "58511"
			},
			"external": {
				"chooseNextAction(uint8,address,int256,address,int256)": "478"
			}
		},
		"methodIdentifiers": {
			"chooseNextAction(uint8,address,int256,address,int256)": "8dfe2b9f"
		}
	},
	"abi": [
		{
			"constant": true,
			"inputs": [
				{
					"internalType": "enum ActionStrategy.Action",
					"name": "previousAdvAction",
					"type": "uint8"
				},
				{
					"internalType": "address",
					"name": "avatar",
					"type": "address"
				},
				{
					"internalType": "int256",
					"name": "damages",
					"type": "int256"
				},
				{
					"internalType": "address",
					"name": "avatarAdv",
					"type": "address"
				},
				{
					"internalType": "int256",
					"name": "damagesAdv",
					"type": "int256"
				}
			],
			"name": "chooseNextAction",
			"outputs": [
				{
					"internalType": "enum ActionStrategy.Action",
					"name": "action",
					"type": "uint8"
				}
			],
			"payable": false,
			"stateMutability": "view",
			"type": "function"
		}
	]
}