{
	"data": {
		"bytecode": {
			"linkReferences": {},
			"object": "6080604052348015600f57600080fd5b5060ac8061001e6000396000f3fe6080604052348015600f57600080fd5b506004361060285760003560e01c8063c38f460514602d575b600080fd5b606c60048036036020811015604157600080fd5b81019080803573ffffffffffffffffffffffffffffffffffffffff169060200190929190505050606e565b005b6000819050505056fea265627a7a72315820c0b1301d97bbacb83e04ede6905956e628ea9f854519077bce8162fa04a48faf64736f6c63430005110032",
			"opcodes": "PUSH1 0x80 PUSH1 0x40 MSTORE CALLVALUE DUP1 ISZERO PUSH1 0xF JUMPI PUSH1 0x0 DUP1 REVERT JUMPDEST POP PUSH1 0xAC DUP1 PUSH2 0x1E PUSH1 0x0 CODECOPY PUSH1 0x0 RETURN INVALID PUSH1 0x80 PUSH1 0x40 MSTORE CALLVALUE DUP1 ISZERO PUSH1 0xF JUMPI PUSH1 0x0 DUP1 REVERT JUMPDEST POP PUSH1 0x4 CALLDATASIZE LT PUSH1 0x28 JUMPI PUSH1 0x0 CALLDATALOAD PUSH1 0xE0 SHR DUP1 PUSH4 0xC38F4605 EQ PUSH1 0x2D JUMPI JUMPDEST PUSH1 0x0 DUP1 REVERT JUMPDEST PUSH1 0x6C PUSH1 0x4 DUP1 CALLDATASIZE SUB PUSH1 0x20 DUP2 LT ISZERO PUSH1 0x41 JUMPI PUSH1 0x0 DUP1 REVERT JUMPDEST DUP2 ADD SWAP1 DUP1 DUP1 CALLDATALOAD PUSH20 0xFFFFFFFFFFFFFFFFFFFFFFFFFFFFFFFFFFFFFFFF AND SWAP1 PUSH1 0x20 ADD SWAP1 SWAP3 SWAP2 SWAP1 POP POP POP PUSH1 0x6E JUMP JUMPDEST STOP JUMPDEST PUSH1 0x0 DUP2 SWAP1 POP POP POP JUMP INVALID LOG2 PUSH6 0x627A7A723158 KECCAK256 0xC0 0xB1 ADDRESS SAR SWAP8 0xBB 0xAC 0xB8 RETURNDATACOPY DIV 0xED 0xE6 SWAP1 MSIZE JUMP 0xE6 0x28 0xEA SWAP16 DUP6 GASLIMIT NOT SMOD PUSH28 0xCE8162FA04A48FAF64736F6C63430005110032000000000000000000 "
		},
		"gasEstimates": {
			"creation": {
				"codeDepositCost": "34400",
				"executionCost": "87",
				"totalCost": "34487"
			},
			"external": {
				"soin(address)": "225"
			}
		},
		"methodIdentifiers": {
			"soin(address)": "c38f4605"
		}
	},
	"abi": [
		{
			"constant": true,
			"inputs": [
				{
					"internalType": "address",
					"name": "avatarAdr",
					"type": "address"
				}
			],
			"name": "soin",
			"outputs": [],
			"payable": false,
			"stateMutability": "view",
			"type": "function"
		}
	]
}